{
  "address": "0xadCdDb3ee010eD3Aa5714ab1f05F37B12462a894",
  "abi": [
    {
      "inputs": [],
      "name": "InvalidInitialization",
      "type": "error"
    },
    {
      "inputs": [],
      "name": "NotInitializing",
      "type": "error"
    },
    {
      "inputs": [
        {
          "internalType": "address",
          "name": "owner",
          "type": "address"
        }
      ],
      "name": "OwnableInvalidOwner",
      "type": "error"
    },
    {
      "inputs": [
        {
          "internalType": "address",
          "name": "account",
          "type": "address"
        }
      ],
      "name": "OwnableUnauthorizedAccount",
      "type": "error"
    },
    {
      "anonymous": false,
      "inputs": [
        {
          "indexed": false,
          "internalType": "uint64",
          "name": "version",
          "type": "uint64"
        }
      ],
      "name": "Initialized",
      "type": "event"
    },
    {
      "anonymous": false,
      "inputs": [
        {
          "indexed": false,
          "internalType": "uint32",
          "name": "oldValue",
          "type": "uint32"
        },
        {
          "indexed": false,
          "internalType": "uint32",
          "name": "newValue",
          "type": "uint32"
        }
      ],
      "name": "L2GasSet",
      "type": "event"
    },
    {
      "anonymous": false,
      "inputs": [
        {
          "indexed": false,
          "internalType": "uint256",
          "name": "amount",
          "type": "uint256"
        }
      ],
      "name": "L2MetisMinted",
      "type": "event"
    },
    {
      "anonymous": false,
      "inputs": [
        {
          "indexed": true,
          "internalType": "address",
          "name": "previousOwner",
          "type": "address"
        },
        {
          "indexed": true,
          "internalType": "address",
          "name": "newOwner",
          "type": "address"
        }
      ],
      "name": "OwnershipTransferred",
      "type": "event"
    },
    {
      "anonymous": false,
      "inputs": [
        {
          "indexed": false,
          "internalType": "uint32",
          "name": "index",
          "type": "uint32"
        },
        {
          "indexed": false,
          "internalType": "address",
          "name": "agent",
          "type": "address"
        }
      ],
      "name": "SequencerAgentAdded",
      "type": "event"
    },
    {
      "anonymous": false,
      "inputs": [
        {
          "indexed": true,
          "internalType": "address",
          "name": "oldValue",
          "type": "address"
        },
        {
          "indexed": true,
          "internalType": "address",
          "name": "newValue",
          "type": "address"
        }
      ],
      "name": "SequencerAgentTemplateSet",
      "type": "event"
    },
    {
      "anonymous": false,
      "inputs": [
        {
          "indexed": false,
          "internalType": "uint32",
          "name": "index",
          "type": "uint32"
        },
        {
          "indexed": false,
          "internalType": "uint256",
          "name": "amount",
          "type": "uint256"
        },
        {
          "indexed": false,
          "internalType": "uint256",
          "name": "reward",
          "type": "uint256"
        }
      ],
      "name": "SequencerRelocked",
      "type": "event"
    },
    {
      "anonymous": false,
      "inputs": [
        {
          "indexed": false,
          "internalType": "bool",
          "name": "oldValue",
          "type": "bool"
        },
        {
          "indexed": false,
          "internalType": "bool",
          "name": "newValue",
          "type": "bool"
        }
      ],
      "name": "WithdrawRewardsSet",
      "type": "event"
    },
    {
      "inputs": [],
      "name": "activeSequencerCount",
      "outputs": [
        {
          "internalType": "uint32",
          "name": "",
          "type": "uint32"
        }
      ],
      "stateMutability": "view",
      "type": "function"
    },
    {
      "inputs": [
        {
          "internalType": "uint256",
          "name": "",
          "type": "uint256"
        }
      ],
      "name": "activeSequencerIds",
      "outputs": [
        {
          "internalType": "uint32",
          "name": "",
          "type": "uint32"
        }
      ],
      "stateMutability": "view",
      "type": "function"
    },
    {
      "inputs": [],
      "name": "addAgent",
      "outputs": [
        {
          "internalType": "uint32",
          "name": "",
          "type": "uint32"
        }
      ],
      "stateMutability": "nonpayable",
      "type": "function"
    },
    {
      "inputs": [],
      "name": "implementation",
      "outputs": [
        {
          "internalType": "address",
          "name": "",
          "type": "address"
        }
      ],
      "stateMutability": "view",
      "type": "function"
    },
    {
      "inputs": [
        {
          "internalType": "address",
          "name": "_metis",
          "type": "address"
        },
        {
          "internalType": "address",
          "name": "_lockingPool",
          "type": "address"
        },
        {
          "internalType": "address",
          "name": "_l1Bridge",
          "type": "address"
        },
        {
          "internalType": "uint256",
          "name": "_l2ChainId",
          "type": "uint256"
        },
        {
          "internalType": "uint32",
          "name": "_l2Gas",
          "type": "uint32"
        },
        {
          "internalType": "address",
          "name": "_l2Minter",
          "type": "address"
        },
        {
          "internalType": "address",
          "name": "_l2RewardDispatcher",
          "type": "address"
        }
      ],
      "name": "initialize",
      "outputs": [],
      "stateMutability": "nonpayable",
      "type": "function"
    },
    {
      "inputs": [],
      "name": "l2ChainId",
      "outputs": [
        {
          "internalType": "uint256",
          "name": "",
          "type": "uint256"
        }
      ],
      "stateMutability": "view",
      "type": "function"
    },
    {
      "inputs": [],
      "name": "l2Gas",
      "outputs": [
        {
          "internalType": "uint32",
          "name": "",
          "type": "uint32"
        }
      ],
      "stateMutability": "view",
      "type": "function"
    },
    {
      "inputs": [],
      "name": "l2Minter",
      "outputs": [
        {
          "internalType": "address",
          "name": "",
          "type": "address"
        }
      ],
      "stateMutability": "view",
      "type": "function"
    },
    {
      "inputs": [],
      "name": "l2RewardDispatcher",
      "outputs": [
        {
          "internalType": "address",
          "name": "",
          "type": "address"
        }
      ],
      "stateMutability": "view",
      "type": "function"
    },
    {
      "inputs": [
        {
          "internalType": "uint32",
          "name": "agentId",
          "type": "uint32"
        },
        {
          "internalType": "address",
          "name": "sequencerSigner",
          "type": "address"
        },
        {
          "internalType": "uint256",
          "name": "amount",
          "type": "uint256"
        },
        {
          "internalType": "bytes",
          "name": "signerPubKey",
          "type": "bytes"
        }
      ],
      "name": "lockFor",
      "outputs": [],
      "stateMutability": "nonpayable",
      "type": "function"
    },
    {
      "inputs": [],
      "name": "lockingInfo",
      "outputs": [
        {
          "internalType": "contract ILockingInfo",
          "name": "",
          "type": "address"
        }
      ],
      "stateMutability": "view",
      "type": "function"
    },
    {
      "inputs": [],
      "name": "lockingPool",
      "outputs": [
        {
          "internalType": "contract ILockingPool",
          "name": "",
          "type": "address"
        }
      ],
      "stateMutability": "view",
      "type": "function"
    },
    {
      "inputs": [],
      "name": "messenger",
      "outputs": [
        {
          "internalType": "contract ICrossDomainMessenger",
          "name": "",
          "type": "address"
        }
      ],
      "stateMutability": "view",
      "type": "function"
    },
    {
      "inputs": [],
      "name": "metis",
      "outputs": [
        {
          "internalType": "contract IERC20",
          "name": "",
          "type": "address"
        }
      ],
      "stateMutability": "view",
      "type": "function"
    },
    {
      "inputs": [],
      "name": "owner",
      "outputs": [
        {
          "internalType": "address",
          "name": "",
          "type": "address"
        }
      ],
      "stateMutability": "view",
      "type": "function"
    },
    {
      "inputs": [],
      "name": "relock",
      "outputs": [
        {
          "internalType": "uint256",
          "name": "totalProcessed",
          "type": "uint256"
        }
      ],
      "stateMutability": "payable",
      "type": "function"
    },
    {
      "inputs": [],
      "name": "renounceOwnership",
      "outputs": [],
      "stateMutability": "nonpayable",
      "type": "function"
    },
    {
      "inputs": [],
      "name": "sequencerAgentCount",
      "outputs": [
        {
          "internalType": "uint32",
          "name": "",
          "type": "uint32"
        }
      ],
      "stateMutability": "view",
      "type": "function"
    },
    {
      "inputs": [],
      "name": "sequencerAgentTemplate",
      "outputs": [
        {
          "internalType": "address",
          "name": "",
          "type": "address"
        }
      ],
      "stateMutability": "view",
      "type": "function"
    },
    {
      "inputs": [
        {
          "internalType": "uint32",
          "name": "",
          "type": "uint32"
        }
      ],
      "name": "sequencerAgents",
      "outputs": [
        {
          "internalType": "address",
          "name": "",
          "type": "address"
        }
      ],
      "stateMutability": "view",
      "type": "function"
    },
    {
      "inputs": [
        {
          "internalType": "uint32",
          "name": "agentId",
          "type": "uint32"
        },
        {
          "internalType": "bool",
          "name": "active",
          "type": "bool"
        }
      ],
      "name": "setActive",
      "outputs": [],
      "stateMutability": "nonpayable",
      "type": "function"
    },
    {
      "inputs": [
        {
          "internalType": "uint32",
          "name": "_l2Gas",
          "type": "uint32"
        }
      ],
      "name": "setL2Gas",
      "outputs": [],
      "stateMutability": "nonpayable",
      "type": "function"
    },
    {
      "inputs": [
        {
          "internalType": "address",
          "name": "_sequencerAgentTemplate",
          "type": "address"
        }
      ],
      "name": "setSequencerAgentTemplate",
      "outputs": [],
      "stateMutability": "nonpayable",
      "type": "function"
    },
    {
      "inputs": [
        {
          "internalType": "bool",
          "name": "_withdrawRewards",
          "type": "bool"
        }
      ],
      "name": "setWithdrawRewards",
      "outputs": [],
      "stateMutability": "nonpayable",
      "type": "function"
    },
    {
      "inputs": [],
      "name": "sumRewards",
      "outputs": [
        {
          "internalType": "uint256",
          "name": "",
          "type": "uint256"
        }
      ],
      "stateMutability": "view",
      "type": "function"
    },
    {
      "inputs": [],
      "name": "totalLocked",
      "outputs": [
        {
          "internalType": "uint256",
          "name": "",
          "type": "uint256"
        }
      ],
      "stateMutability": "view",
      "type": "function"
    },
    {
      "inputs": [
        {
          "internalType": "address",
          "name": "newOwner",
          "type": "address"
        }
      ],
      "name": "transferOwnership",
      "outputs": [],
      "stateMutability": "nonpayable",
      "type": "function"
    },
    {
      "inputs": [
        {
          "internalType": "uint32",
          "name": "agentId",
          "type": "uint32"
        }
      ],
      "name": "unlock",
      "outputs": [],
      "stateMutability": "payable",
      "type": "function"
    },
    {
      "inputs": [
        {
          "internalType": "uint32",
          "name": "agentId",
          "type": "uint32"
        }
      ],
      "name": "unlockClaim",
      "outputs": [],
      "stateMutability": "payable",
      "type": "function"
    },
    {
      "inputs": [],
      "name": "withdrawRewards",
      "outputs": [
        {
          "internalType": "bool",
          "name": "",
          "type": "bool"
        }
      ],
      "stateMutability": "view",
      "type": "function"
    }
  ],
  "transactionHash": "0x1d5a80f920f18c0e0e0fa084d6b55bc5642bc42af62ce827180748e6c9fb5b58",
  "args": [],
  "numDeployments": 5,
  "solcInputHash": "5699b87d94e6d0b9e18c4ecce821ab9f",
  "bytecode": "0x608060405234801561001057600080fd5b50613f65806100206000396000f3fe608060405260043610620001fa5760003560e01c80638da5cb5b116200010f578063d6ae3cd511620000a3578063eb2c5798116200006d578063eb2c579814620006bb578063efa412d014620006e9578063f2fde38b1462000717578063f7cee36a146200074557620001fa565b8063d6ae3cd514620005fd578063e5974554146200062d578063e92d61e5146200065d578063e956eaf1146200068d57620001fa565b8063af372db711620000e5578063af372db7146200054f578063b699ce5f146200057d578063c53b573d14620005ab578063c7b8981c14620005cd57620001fa565b80638da5cb5b14620004bf5780638db8ad8814620004ef5780639e935704146200051f57620001fa565b80633cbb6979116200019357806367d93c81116200015d57806367d93c811462000425578063715018a614620004455780637ca4f8b0146200045f57806385d1e2b8146200048f57620001fa565b80633cbb69791462000351578063457cb58614620003815780635689141214620003c55780635c60da1b14620003f557620001fa565b80631abdaf6a11620001d55780631abdaf6a146200027f57806333bec7e714620002c357806335cd359914620002f15780633cb747bf146200032157620001fa565b8063080e1e4e14620001ff5780631152eb41146200022f5780631221e6a5146200025f575b600080fd5b3480156200020c57600080fd5b506200021762000775565b6040516200022691906200262d565b60405180910390f35b3480156200023c57600080fd5b50620002476200079b565b6040516200025691906200266b565b60405180910390f35b6200027d6004803603810190620002779190620026cd565b620007a8565b005b3480156200028c57600080fd5b50620002ab6004803603810190620002a591906200273a565b62000875565b604051620002ba91906200266b565b60405180910390f35b348015620002d057600080fd5b50620002ef6004803603810190620002e99190620026cd565b620008b0565b005b348015620002fe57600080fd5b506200030962000931565b6040516200031891906200266b565b60405180910390f35b3480156200032e57600080fd5b506200033962000b60565b604051620003489190620027d7565b60405180910390f35b3480156200035e57600080fd5b506200036962000b86565b6040516200037891906200266b565b60405180910390f35b3480156200038e57600080fd5b50620003ad6004803603810190620003a79190620026cd565b62000b9c565b604051620003bc91906200262d565b60405180910390f35b348015620003d257600080fd5b50620003dd62000bcf565b604051620003ec919062002805565b60405180910390f35b3480156200040257600080fd5b506200040d62000d24565b6040516200041c91906200262d565b60405180910390f35b6200044360048036038101906200043d9190620026cd565b62000d4d565b005b3480156200045257600080fd5b506200045d62000e26565b005b3480156200046c57600080fd5b506200047762000e3e565b60405162000486919062002805565b60405180910390f35b3480156200049c57600080fd5b50620004a762000e44565b604051620004b6919062002847565b60405180910390f35b348015620004cc57600080fd5b50620004d762000e6a565b604051620004e691906200262d565b60405180910390f35b348015620004fc57600080fd5b506200050762000ea4565b6040516200051691906200262d565b60405180910390f35b3480156200052c57600080fd5b506200053762000ec8565b6040516200054691906200266b565b60405180910390f35b3480156200055c57600080fd5b506200057b6004803603810190620005759190620029f7565b62000ede565b005b3480156200058a57600080fd5b50620005a96004803603810190620005a3919062002a88565b6200107f565b005b620005b56200162d565b604051620005c4919062002805565b60405180910390f35b348015620005da57600080fd5b50620005e562001bee565b604051620005f4919062002b58565b60405180910390f35b3480156200060a57600080fd5b506200061562001c01565b60405162000624919062002805565b60405180910390f35b3480156200063a57600080fd5b506200064562001c07565b60405162000654919062002b9a565b60405180910390f35b3480156200066a57600080fd5b506200067562001c2d565b6040516200068491906200262d565b60405180910390f35b3480156200069a57600080fd5b50620006b96004803603810190620006b3919062002be8565b62001c53565b005b348015620006c857600080fd5b50620006e76004803603810190620006e1919062002c2f565b62001c6d565b005b348015620006f657600080fd5b506200071560048036038101906200070f919062002c61565b62001d2c565b005b3480156200072457600080fd5b506200074360048036038101906200073d919062002c2f565b62001da3565b005b3480156200075257600080fd5b506200075d62001e30565b6040516200076c919062002cb8565b60405180910390f35b600660009054906101000a900473ffffffffffffffffffffffffffffffffffffffff1681565b6000600a80549050905090565b620007b262001e56565b600860008263ffffffff1663ffffffff16815260200190815260200160002060009054906101000a900473ffffffffffffffffffffffffffffffffffffffff1673ffffffffffffffffffffffffffffffffffffffff16631221e6a5600c60009054906101000a900463ffffffff166040518263ffffffff1660e01b81526004016200083e91906200266b565b600060405180830381600087803b1580156200085957600080fd5b505af11580156200086e573d6000803e3d6000fd5b5050505050565b600a81815481106200088657600080fd5b9060005260206000209060089182820401919006600402915054906101000a900463ffffffff1681565b620008ba62001e56565b6000600c60009054906101000a900463ffffffff16905081600c60006101000a81548163ffffffff021916908363ffffffff1602179055507f4042b09a75e5a67c8cc2a57e00de6d29fb5202b7207afba895eb8b5cc3e2179e81836040516200092592919062002cd5565b60405180910390a15050565b60006200093d62001e56565b600063f8c8765e60e01b30600260009054906101000a900473ffffffffffffffffffffffffffffffffffffffff16600360009054906101000a900473ffffffffffffffffffffffffffffffffffffffff16600160009054906101000a900473ffffffffffffffffffffffffffffffffffffffff16604051602401620009c6949392919062002d02565b604051602081830303815290604052907bffffffffffffffffffffffffffffffffffffffffffffffffffffffff19166020820180517bffffffffffffffffffffffffffffffffffffffffffffffffffffffff838183161783525050505090506000308260405162000a3790620025da565b62000a4492919062002dd8565b604051809103906000f08015801562000a61573d6000803e3d6000fd5b5090506000600960009054906101000a900463ffffffff16905081600860008363ffffffff1663ffffffff16815260200190815260200160002060006101000a81548173ffffffffffffffffffffffffffffffffffffffff021916908373ffffffffffffffffffffffffffffffffffffffff1602179055507ffcdf0e51b92207a6c5cfa485e975b62686da57da9499feafd12185ee26a860d9818360405162000b0c92919062002e0c565b60405180910390a16009600081819054906101000a900463ffffffff168092919062000b389062002e68565b91906101000a81548163ffffffff021916908363ffffffff1602179055505080935050505090565b600460009054906101000a900473ffffffffffffffffffffffffffffffffffffffff1681565b600c60009054906101000a900463ffffffff1681565b60086020528060005260406000206000915054906101000a900473ffffffffffffffffffffffffffffffffffffffff1681565b6000806000905060005b600a805490508163ffffffff16101562000d1c576000600a8263ffffffff168154811062000c0c5762000c0b62002e99565b5b90600052602060002090600891828204019190066004029054906101000a900463ffffffff1690506000600860008363ffffffff1663ffffffff16815260200190815260200160002060009054906101000a900473ffffffffffffffffffffffffffffffffffffffff16905060008173ffffffffffffffffffffffffffffffffffffffff166376d9f95c6040518163ffffffff1660e01b815260040161014060405180830381865afa15801562000cc7573d6000803e3d6000fd5b505050506040513d601f19601f8201168201806040525081019062000ced91906200300a565b600001519050808562000d0191906200303d565b9450505050808062000d139062002e68565b91505062000bd9565b508091505090565b60008060009054906101000a900473ffffffffffffffffffffffffffffffffffffffff16905090565b62000d5762001e56565b600860008263ffffffff1663ffffffff16815260200190815260200160002060009054906101000a900473ffffffffffffffffffffffffffffffffffffffff1673ffffffffffffffffffffffffffffffffffffffff166367d93c81600c60009054906101000a900463ffffffff166040518263ffffffff1660e01b815260040162000de391906200266b565b600060405180830381600087803b15801562000dfe57600080fd5b505af115801562000e13573d6000803e3d6000fd5b5050505062000e228162001ee6565b5050565b62000e3062001e56565b62000e3c600062002030565b565b600b5481565b600260009054906101000a900473ffffffffffffffffffffffffffffffffffffffff1681565b60008062000e7762002109565b90508060000160009054906101000a900473ffffffffffffffffffffffffffffffffffffffff1691505090565b60008054906101000a900473ffffffffffffffffffffffffffffffffffffffff1681565b600960009054906101000a900463ffffffff1681565b62000ee862001e56565b6000600860008663ffffffff1663ffffffff16815260200190815260200160002060009054906101000a900473ffffffffffffffffffffffffffffffffffffffff169050600160009054906101000a900473ffffffffffffffffffffffffffffffffffffffff1673ffffffffffffffffffffffffffffffffffffffff166323b872dd3383866040518463ffffffff1660e01b815260040162000f8d9392919062003078565b6020604051808303816000875af115801562000fad573d6000803e3d6000fd5b505050506040513d601f19601f8201168201806040525081019062000fd39190620030cc565b508073ffffffffffffffffffffffffffffffffffffffff1663ce6df54a85600660009054906101000a900473ffffffffffffffffffffffffffffffffffffffff1686866040518563ffffffff1660e01b8152600401620010379493929190620030fe565b600060405180830381600087803b1580156200105257600080fd5b505af115801562001067573d6000803e3d6000fd5b505050506200107885600162002131565b5050505050565b60006200108b6200225e565b905060008160000160089054906101000a900460ff1615905060008260000160009054906101000a900467ffffffffffffffff1690506000808267ffffffffffffffff16148015620010da5750825b9050600060018367ffffffffffffffff1614801562001110575060003073ffffffffffffffffffffffffffffffffffffffff163b145b9050811580156200111f575080155b1562001157576040517ff92ee8a900000000000000000000000000000000000000000000000000000000815260040160405180910390fd5b60018560000160006101000a81548167ffffffffffffffff021916908367ffffffffffffffff1602179055508315620011a85760018560000160086101000a81548160ff0219169083151502179055505b600073ffffffffffffffffffffffffffffffffffffffff168c73ffffffffffffffffffffffffffffffffffffffff1614158015620012135750600073ffffffffffffffffffffffffffffffffffffffff168b73ffffffffffffffffffffffffffffffffffffffff1614155b80156200124d5750600073ffffffffffffffffffffffffffffffffffffffff168a73ffffffffffffffffffffffffffffffffffffffff1614155b8015620012875750600073ffffffffffffffffffffffffffffffffffffffff168773ffffffffffffffffffffffffffffffffffffffff1614155b8015620012c15750600073ffffffffffffffffffffffffffffffffffffffff168673ffffffffffffffffffffffffffffffffffffffff1614155b62001303576040517f08c379a0000000000000000000000000000000000000000000000000000000008152600401620012fa90620031b3565b60405180910390fd5b6200130e3362002286565b8b600160006101000a81548173ffffffffffffffffffffffffffffffffffffffff021916908373ffffffffffffffffffffffffffffffffffffffff1602179055508a600260006101000a81548173ffffffffffffffffffffffffffffffffffffffff021916908373ffffffffffffffffffffffffffffffffffffffff160217905550600260009054906101000a900473ffffffffffffffffffffffffffffffffffffffff1673ffffffffffffffffffffffffffffffffffffffff1663e2fdcc176040518163ffffffff1660e01b8152600401602060405180830381865afa158015620013fe573d6000803e3d6000fd5b505050506040513d601f19601f820116820180604052508101906200142491906200321a565b600360006101000a81548173ffffffffffffffffffffffffffffffffffffffff021916908373ffffffffffffffffffffffffffffffffffffffff1602179055508973ffffffffffffffffffffffffffffffffffffffff16633cb747bf6040518163ffffffff1660e01b8152600401602060405180830381865afa158015620014b0573d6000803e3d6000fd5b505050506040513d601f19601f82011682018060405250810190620014d691906200324c565b600460006101000a81548173ffffffffffffffffffffffffffffffffffffffff021916908373ffffffffffffffffffffffffffffffffffffffff1602179055508860058190555087600c60006101000a81548163ffffffff021916908363ffffffff16021790555086600660006101000a81548173ffffffffffffffffffffffffffffffffffffffff021916908373ffffffffffffffffffffffffffffffffffffffff16021790555085600760006101000a81548173ffffffffffffffffffffffffffffffffffffffff021916908373ffffffffffffffffffffffffffffffffffffffff16021790555083156200161f5760008560000160086101000a81548160ff0219169083151502179055507fc7f505b2f371ae2175ee4913f4499e1f2633a7b5936321eed1cdaeb6115181d26001604051620016169190620032d5565b60405180910390a15b505050505050505050505050565b600080600a805490501162001679576040517f08c379a0000000000000000000000000000000000000000000000000000000008152600401620016709062003342565b60405180910390fd5b6000600360009054906101000a900473ffffffffffffffffffffffffffffffffffffffff1673ffffffffffffffffffffffffffffffffffffffff16636c0b3e466040518163ffffffff1660e01b8152600401602060405180830381865afa158015620016e9573d6000803e3d6000fd5b505050506040513d601f19601f820116820180604052508101906200170f919062003364565b90506000600160009054906101000a900473ffffffffffffffffffffffffffffffffffffffff1673ffffffffffffffffffffffffffffffffffffffff166370a08231306040518263ffffffff1660e01b81526004016200177091906200262d565b602060405180830381865afa1580156200178e573d6000803e3d6000fd5b505050506040513d601f19601f82011682018060405250810190620017b4919062003364565b90506000805b600a805490508163ffffffff16101562001bb6576000600a8263ffffffff1681548110620017ed57620017ec62002e99565b5b90600052602060002090600891828204019190066004029054906101000a900463ffffffff1690506000600860008363ffffffff1663ffffffff16815260200190815260200160002060009054906101000a900473ffffffffffffffffffffffffffffffffffffffff16905060008173ffffffffffffffffffffffffffffffffffffffff166376d9f95c6040518163ffffffff1660e01b815260040161014060405180830381865afa158015620018a8573d6000803e3d6000fd5b505050506040513d601f19601f82011682018060405250810190620018ce91906200300a565b905060008082602001518360000151915091508187620018ef91906200303d565b965060008982106200190357600062001912565b818a62001911919062003396565b5b9050600062001922828b6200229e565b9050808a62001932919062003396565b9950600084826200194491906200303d565b9050600081036200195d57505050505050505062001ba0565b808d6200196b91906200303d565b9c506000600c60049054906101000a900460ff16806200199757508c82866200199591906200303d565b115b9050808015620019a75750600086115b1562001a2f578773ffffffffffffffffffffffffffffffffffffffff166356387b91600c60009054906101000a900463ffffffff166040518263ffffffff1660e01b8152600401620019fa91906200266b565b600060405180830381600087803b15801562001a1557600080fd5b505af115801562001a2a573d6000803e3d6000fd5b505050505b80158062001a3d5750600083115b1562001b9657600160009054906101000a900473ffffffffffffffffffffffffffffffffffffffff1673ffffffffffffffffffffffffffffffffffffffff1663a9059cbb89856040518363ffffffff1660e01b815260040162001aa2929190620033d1565b6020604051808303816000875af115801562001ac2573d6000803e3d6000fd5b505050506040513d601f19601f8201168201806040525081019062001ae89190620030cc565b508773ffffffffffffffffffffffffffffffffffffffff1663a98d38f0846040518263ffffffff1660e01b815260040162001b24919062002805565b600060405180830381600087803b15801562001b3f57600080fd5b505af115801562001b54573d6000803e3d6000fd5b505050507fb8aafdec9bacdc76bfea3c330063c391a2904d4f91e71f97a91534f3c8ce4ab589848860405162001b8d93929190620033fe565b60405180910390a15b5050505050505050505b808062001bad9062002e68565b915050620017ba565b50600081111562001be85762001bcc81620022b9565b80600b600082825462001be091906200303d565b925050819055505b50505090565b600c60049054906101000a900460ff1681565b60055481565b600160009054906101000a900473ffffffffffffffffffffffffffffffffffffffff1681565b600760009054906101000a900473ffffffffffffffffffffffffffffffffffffffff1681565b62001c5d62001e56565b62001c69828262002131565b5050565b62001c7762001e56565b600073ffffffffffffffffffffffffffffffffffffffff168173ffffffffffffffffffffffffffffffffffffffff160362001ce9576040517f08c379a000000000000000000000000000000000000000000000000000000000815260040162001ce090620031b3565b60405180910390fd5b806000806101000a81548173ffffffffffffffffffffffffffffffffffffffff021916908373ffffffffffffffffffffffffffffffffffffffff16021790555050565b62001d3662001e56565b6000600c60049054906101000a900460ff16905081600c60046101000a81548160ff0219169083151502179055507fba50596d5d8d3fffda559f307b84b1b0bdba201192d70b393820eab501346b1e818360405162001d979291906200343b565b60405180910390a15050565b62001dad62001e56565b600073ffffffffffffffffffffffffffffffffffffffff168173ffffffffffffffffffffffffffffffffffffffff160362001e225760006040517f1e4fbdf700000000000000000000000000000000000000000000000000000000815260040162001e1991906200262d565b60405180910390fd5b62001e2d8162002030565b50565b600360009054906101000a900473ffffffffffffffffffffffffffffffffffffffff1681565b62001e6062002440565b73ffffffffffffffffffffffffffffffffffffffff1662001e8062000e6a565b73ffffffffffffffffffffffffffffffffffffffff161462001ee45762001ea662002440565b6040517f118cdaa700000000000000000000000000000000000000000000000000000000815260040162001edb91906200262d565b60405180910390fd5b565b600062001ef38262002448565b905063ffffffff80168163ffffffff161062001f46576040517f08c379a000000000000000000000000000000000000000000000000000000000815260040162001f3d90620034b8565b60405180910390fd5b600a6001600a8054905062001f5c919062003396565b8154811062001f705762001f6f62002e99565b5b90600052602060002090600891828204019190066004029054906101000a900463ffffffff16600a8263ffffffff168154811062001fb35762001fb262002e99565b5b90600052602060002090600891828204019190066004026101000a81548163ffffffff021916908363ffffffff160217905550600a80548062001ffb5762001ffa620034da565b5b60019003818190600052602060002090600891828204019190066004026101000a81549063ffffffff02191690559055919050565b60006200203c62002109565b905060008160000160009054906101000a900473ffffffffffffffffffffffffffffffffffffffff169050828260000160006101000a81548173ffffffffffffffffffffffffffffffffffffffff021916908373ffffffffffffffffffffffffffffffffffffffff1602179055508273ffffffffffffffffffffffffffffffffffffffff168173ffffffffffffffffffffffffffffffffffffffff167f8be0079c531659141344cd1fd0a4f28419497f9722a3daafe3b4186f6b6457e060405160405180910390a3505050565b60007f9016d09d72d40fdae2fd8ceac6b6234c7706214fd39c1cd1e609a0528c199300905090565b80156200224d5760005b600a805490508163ffffffff161015620021f8578263ffffffff16600a8263ffffffff168154811062002173576200217262002e99565b5b90600052602060002090600891828204019190066004029054906101000a900463ffffffff1663ffffffff1603620021e2576040517f08c379a0000000000000000000000000000000000000000000000000000000008152600401620021d99062003559565b60405180910390fd5b8080620021ef9062002e68565b9150506200213b565b50600a8290806001815401808255809150506001900390600052602060002090600891828204019190066004029091909190916101000a81548163ffffffff021916908363ffffffff1602179055506200225a565b620022588262001ee6565b505b5050565b60007ff0c57e16840df040f15088dc2f81fe391c3923bec73e23a9662efc9c229c6a00905090565b62002290620024e8565b6200229b816200252b565b50565b6000818310620022af5781620022b1565b825b905092915050565b600063eb82afb360e01b82604051602401620022d6919062002805565b604051602081830303815290604052907bffffffffffffffffffffffffffffffffffffffffffffffffffffffff19166020820180517bffffffffffffffffffffffffffffffffffffffffffffffffffffffff83818316178352505050509050600460009054906101000a900473ffffffffffffffffffffffffffffffffffffffff1673ffffffffffffffffffffffffffffffffffffffff166344dd5ed634600554600660009054906101000a900473ffffffffffffffffffffffffffffffffffffffff1685600c60009054906101000a900463ffffffff166040518663ffffffff1660e01b8152600401620023cf94939291906200357b565b6000604051808303818588803b158015620023e957600080fd5b505af1158015620023fe573d6000803e3d6000fd5b50505050507fd644e527c1896057ce642adfbc00f04d6b23d4c2fb30529522184d151dc087dc8260405162002434919062002805565b60405180910390a15050565b600033905090565b600080600090505b600a805490508163ffffffff161015620024da578263ffffffff16600a8263ffffffff168154811062002488576200248762002e99565b5b90600052602060002090600891828204019190066004029054906101000a900463ffffffff1663ffffffff1603620024c45780915050620024e3565b8080620024d19062002e68565b91505062002450565b5063ffffffff90505b919050565b620024f2620025b8565b62002529576040517fd7e6bcf800000000000000000000000000000000000000000000000000000000815260040160405180910390fd5b565b62002535620024e8565b600073ffffffffffffffffffffffffffffffffffffffff168173ffffffffffffffffffffffffffffffffffffffff1603620025aa5760006040517f1e4fbdf7000000000000000000000000000000000000000000000000000000008152600401620025a191906200262d565b60405180910390fd5b620025b58162002030565b50565b6000620025c46200225e565b60000160089054906101000a900460ff16905090565b61096080620035d083390190565b600073ffffffffffffffffffffffffffffffffffffffff82169050919050565b60006200261582620025e8565b9050919050565b620026278162002608565b82525050565b60006020820190506200264460008301846200261c565b92915050565b600063ffffffff82169050919050565b62002665816200264a565b82525050565b60006020820190506200268260008301846200265a565b92915050565b6000604051905090565b600080fd5b600080fd5b620026a7816200264a565b8114620026b357600080fd5b50565b600081359050620026c7816200269c565b92915050565b600060208284031215620026e657620026e562002692565b5b6000620026f684828501620026b6565b91505092915050565b6000819050919050565b6200271481620026ff565b81146200272057600080fd5b50565b600081359050620027348162002709565b92915050565b60006020828403121562002753576200275262002692565b5b6000620027638482850162002723565b91505092915050565b6000819050919050565b600062002797620027916200278b84620025e8565b6200276c565b620025e8565b9050919050565b6000620027ab8262002776565b9050919050565b6000620027bf826200279e565b9050919050565b620027d181620027b2565b82525050565b6000602082019050620027ee6000830184620027c6565b92915050565b620027ff81620026ff565b82525050565b60006020820190506200281c6000830184620027f4565b92915050565b60006200282f826200279e565b9050919050565b620028418162002822565b82525050565b60006020820190506200285e600083018462002836565b92915050565b6200286f8162002608565b81146200287b57600080fd5b50565b6000813590506200288f8162002864565b92915050565b600080fd5b600080fd5b6000601f19601f8301169050919050565b7f4e487b7100000000000000000000000000000000000000000000000000000000600052604160045260246000fd5b620028ea826200289f565b810181811067ffffffffffffffff821117156200290c576200290b620028b0565b5b80604052505050565b60006200292162002688565b90506200292f8282620028df565b919050565b600067ffffffffffffffff821115620029525762002951620028b0565b5b6200295d826200289f565b9050602081019050919050565b82818337600083830152505050565b6000620029906200298a8462002934565b62002915565b905082815260208101848484011115620029af57620029ae6200289a565b5b620029bc8482856200296a565b509392505050565b600082601f830112620029dc57620029db62002895565b5b8135620029ee84826020860162002979565b91505092915050565b6000806000806080858703121562002a145762002a1362002692565b5b600062002a2487828801620026b6565b945050602062002a37878288016200287e565b935050604062002a4a8782880162002723565b925050606085013567ffffffffffffffff81111562002a6e5762002a6d62002697565b5b62002a7c87828801620029c4565b91505092959194509250565b600080600080600080600060e0888a03121562002aaa5762002aa962002692565b5b600062002aba8a828b016200287e565b975050602062002acd8a828b016200287e565b965050604062002ae08a828b016200287e565b955050606062002af38a828b0162002723565b945050608062002b068a828b01620026b6565b93505060a062002b198a828b016200287e565b92505060c062002b2c8a828b016200287e565b91505092959891949750929550565b60008115159050919050565b62002b528162002b3b565b82525050565b600060208201905062002b6f600083018462002b47565b92915050565b600062002b82826200279e565b9050919050565b62002b948162002b75565b82525050565b600060208201905062002bb1600083018462002b89565b92915050565b62002bc28162002b3b565b811462002bce57600080fd5b50565b60008135905062002be28162002bb7565b92915050565b6000806040838503121562002c025762002c0162002692565b5b600062002c1285828601620026b6565b925050602062002c258582860162002bd1565b9150509250929050565b60006020828403121562002c485762002c4762002692565b5b600062002c58848285016200287e565b91505092915050565b60006020828403121562002c7a5762002c7962002692565b5b600062002c8a8482850162002bd1565b91505092915050565b600062002ca0826200279e565b9050919050565b62002cb28162002c93565b82525050565b600060208201905062002ccf600083018462002ca7565b92915050565b600060408201905062002cec60008301856200265a565b62002cfb60208301846200265a565b9392505050565b600060808201905062002d1960008301876200261c565b62002d28602083018662002836565b62002d37604083018562002ca7565b62002d4660608301846200261c565b95945050505050565b600081519050919050565b600082825260208201905092915050565b60005b8381101562002d8b57808201518184015260208101905062002d6e565b60008484015250505050565b600062002da48262002d4f565b62002db0818562002d5a565b935062002dc281856020860162002d6b565b62002dcd816200289f565b840191505092915050565b600060408201905062002def60008301856200261c565b818103602083015262002e03818462002d97565b90509392505050565b600060408201905062002e2360008301856200265a565b62002e3260208301846200261c565b9392505050565b7f4e487b7100000000000000000000000000000000000000000000000000000000600052601160045260246000fd5b600062002e75826200264a565b915063ffffffff820362002e8e5762002e8d62002e39565b5b600182019050919050565b7f4e487b7100000000000000000000000000000000000000000000000000000000600052603260045260246000fd5b600080fd5b60008151905062002ede8162002709565b92915050565b60008151905062002ef58162002864565b92915050565b6000610140828403121562002f155762002f1462002ec8565b5b62002f2261014062002915565b9050600062002f348482850162002ecd565b600083015250602062002f4a8482850162002ecd565b602083015250604062002f608482850162002ecd565b604083015250606062002f768482850162002ecd565b606083015250608062002f8c8482850162002ecd565b60808301525060a062002fa28482850162002ecd565b60a08301525060c062002fb88482850162002ecd565b60c08301525060e062002fce8482850162002ecd565b60e08301525061010062002fe58482850162002ee4565b6101008301525061012062002ffd8482850162002ee4565b6101208301525092915050565b6000610140828403121562003024576200302362002692565b5b6000620030348482850162002efb565b91505092915050565b60006200304a82620026ff565b91506200305783620026ff565b925082820190508082111562003072576200307162002e39565b5b92915050565b60006060820190506200308f60008301866200261c565b6200309e60208301856200261c565b620030ad6040830184620027f4565b949350505050565b600081519050620030c68162002bb7565b92915050565b600060208284031215620030e557620030e462002692565b5b6000620030f584828501620030b5565b91505092915050565b60006080820190506200311560008301876200261c565b6200312460208301866200261c565b620031336040830185620027f4565b818103606083015262003147818462002d97565b905095945050505050565b600082825260208201905092915050565b7f4465616c65723a207a65726f2061646472657373000000000000000000000000600082015250565b60006200319b60148362003152565b9150620031a88262003163565b602082019050919050565b60006020820190508181036000830152620031ce816200318c565b9050919050565b6000620031e28262002608565b9050919050565b620031f481620031d5565b81146200320057600080fd5b50565b6000815190506200321481620031e9565b92915050565b60006020828403121562003233576200323262002692565b5b6000620032438482850162003203565b91505092915050565b60006020828403121562003265576200326462002692565b5b6000620032758482850162002ee4565b91505092915050565b6000819050919050565b600067ffffffffffffffff82169050919050565b6000620032bd620032b7620032b1846200327e565b6200276c565b62003288565b9050919050565b620032cf816200329c565b82525050565b6000602082019050620032ec6000830184620032c4565b92915050565b7f4465616c65723a206e6f206163746976652073657175656e6365720000000000600082015250565b60006200332a601b8362003152565b91506200333782620032f2565b602082019050919050565b600060208201905081810360008301526200335d816200331b565b9050919050565b6000602082840312156200337d576200337c62002692565b5b60006200338d8482850162002ecd565b91505092915050565b6000620033a382620026ff565b9150620033b083620026ff565b9250828203905081811115620033cb57620033ca62002e39565b5b92915050565b6000604082019050620033e860008301856200261c565b620033f76020830184620027f4565b9392505050565b60006060820190506200341560008301866200265a565b620034246020830185620027f4565b620034336040830184620027f4565b949350505050565b600060408201905062003452600083018562002b47565b62003461602083018462002b47565b9392505050565b7f4465616c65723a206e6f74206163746976650000000000000000000000000000600082015250565b6000620034a060128362003152565b9150620034ad8262003468565b602082019050919050565b60006020820190508181036000830152620034d38162003491565b9050919050565b7f4e487b7100000000000000000000000000000000000000000000000000000000600052603160045260246000fd5b7f4465616c65723a20616c72656164792061637469766500000000000000000000600082015250565b60006200354160168362003152565b91506200354e8262003509565b602082019050919050565b60006020820190508181036000830152620035748162003532565b9050919050565b6000608082019050620035926000830187620027f4565b620035a160208301866200261c565b8181036040830152620035b5818562002d97565b9050620035c660608301846200265a565b9594505050505056fe60a060405260405161096038038061096083398181016040528101906100259190610684565b610035828261007060201b60201c565b8173ffffffffffffffffffffffffffffffffffffffff1660808173ffffffffffffffffffffffffffffffffffffffff16815250505050610795565b61007f8261016360201b60201c565b8173ffffffffffffffffffffffffffffffffffffffff167f1cf3b03a6cf19fa2baba4df148e9dcabedea7f8a5c07840e207e5c089be95d3e60405160405180910390a26000815111156101505761014a8273ffffffffffffffffffffffffffffffffffffffff16635c60da1b6040518163ffffffff1660e01b8152600401602060405180830381865afa15801561011a573d6000803e3d6000fd5b505050506040513d601f19601f8201168201806040525081019061013e91906106e0565b8261030660201b60201c565b5061015f565b61015e61039060201b60201c565b5b5050565b60008173ffffffffffffffffffffffffffffffffffffffff163b036101bf57806040517f64ced0ec0000000000000000000000000000000000000000000000000000000081526004016101b6919061071c565b60405180910390fd5b806101f27fa3f0ad74e5423aebfd80d3ef4346578335a9a72aeaee59ff6cb3582b35133d5060001b6103cd60201b60201c565b60000160006101000a81548173ffffffffffffffffffffffffffffffffffffffff021916908373ffffffffffffffffffffffffffffffffffffffff16021790555060008173ffffffffffffffffffffffffffffffffffffffff16635c60da1b6040518163ffffffff1660e01b8152600401602060405180830381865afa158015610280573d6000803e3d6000fd5b505050506040513d601f19601f820116820180604052508101906102a491906106e0565b905060008173ffffffffffffffffffffffffffffffffffffffff163b0361030257806040517f4c9c8ce30000000000000000000000000000000000000000000000000000000081526004016102f9919061071c565b60405180910390fd5b5050565b60606000808473ffffffffffffffffffffffffffffffffffffffff1684604051610330919061077e565b600060405180830381855af49150503d806000811461036b576040519150601f19603f3d011682016040523d82523d6000602084013e610370565b606091505b50915091506103868583836103d760201b60201c565b9250505092915050565b60003411156103cb576040517fb398979f00000000000000000000000000000000000000000000000000000000815260040160405180910390fd5b565b6000819050919050565b6060826103f2576103ed8261046c60201b60201c565b610464565b6000825114801561041a575060008473ffffffffffffffffffffffffffffffffffffffff163b145b1561045c57836040517f9996b315000000000000000000000000000000000000000000000000000000008152600401610453919061071c565b60405180910390fd5b819050610465565b5b9392505050565b60008151111561047f5780518082602001fd5b6040517f1425ea4200000000000000000000000000000000000000000000000000000000815260040160405180910390fd5b6000604051905090565b600080fd5b600080fd5b600073ffffffffffffffffffffffffffffffffffffffff82169050919050565b60006104f0826104c5565b9050919050565b610500816104e5565b811461050b57600080fd5b50565b60008151905061051d816104f7565b92915050565b600080fd5b600080fd5b6000601f19601f8301169050919050565b7f4e487b7100000000000000000000000000000000000000000000000000000000600052604160045260246000fd5b6105768261052d565b810181811067ffffffffffffffff821117156105955761059461053e565b5b80604052505050565b60006105a86104b1565b90506105b4828261056d565b919050565b600067ffffffffffffffff8211156105d4576105d361053e565b5b6105dd8261052d565b9050602081019050919050565b60005b838110156106085780820151818401526020810190506105ed565b60008484015250505050565b6000610627610622846105b9565b61059e565b90508281526020810184848401111561064357610642610528565b5b61064e8482856105ea565b509392505050565b600082601f83011261066b5761066a610523565b5b815161067b848260208601610614565b91505092915050565b6000806040838503121561069b5761069a6104bb565b5b60006106a98582860161050e565b925050602083015167ffffffffffffffff8111156106ca576106c96104c0565b5b6106d685828601610656565b9150509250929050565b6000602082840312156106f6576106f56104bb565b5b60006107048482850161050e565b91505092915050565b610716816104e5565b82525050565b6000602082019050610731600083018461070d565b92915050565b600081519050919050565b600081905092915050565b600061075882610737565b6107628185610742565b93506107728185602086016105ea565b80840191505092915050565b600061078a828461074d565b915081905092915050565b6080516101b16107af600039600060c701526101b16000f3fe608060405261000c61000e565b005b61001e610019610020565b61009d565b565b600061002a6100c3565b73ffffffffffffffffffffffffffffffffffffffff16635c60da1b6040518163ffffffff1660e01b8152600401602060405180830381865afa158015610074573d6000803e3d6000fd5b505050506040513d601f19601f82011682018060405250810190610098919061014e565b905090565b3660008037600080366000845af43d6000803e80600081146100be573d6000f35b3d6000fd5b60007f0000000000000000000000000000000000000000000000000000000000000000905090565b600080fd5b600073ffffffffffffffffffffffffffffffffffffffff82169050919050565b600061011b826100f0565b9050919050565b61012b81610110565b811461013657600080fd5b50565b60008151905061014881610122565b92915050565b600060208284031215610164576101636100eb565b5b600061017284828501610139565b9150509291505056fea2646970667358221220318efb3add371acc6afd6545498a71373c16dc1386e578ed8c02b6ac326dd4ca64736f6c63430008140033a26469706673582212206b4c9ee802e7f73d0249829f13a387931e28e0bf7ede67d8f713047dd60a73f464736f6c63430008140033",
  "devdoc": {
    "errors": {
      "InvalidInitialization()": [
        {
          "details": "The contract is already initialized."
        }
      ],
      "NotInitializing()": [
        {
          "details": "The contract is not initializing."
        }
      ],
      "OwnableInvalidOwner(address)": [
        {
          "details": "The owner is not a valid owner account. (eg. `address(0)`)"
        }
      ],
      "OwnableUnauthorizedAccount(address)": [
        {
          "details": "The caller account is not authorized to perform an operation."
        }
      ]
    },
    "events": {
      "Initialized(uint64)": {
        "details": "Triggered when the contract has been initialized or reinitialized."
      },
      "L2GasSet(uint32,uint32)": {
        "params": {
          "oldValue": "The old L2 gas limit.        "
        }
      },
      "L2MetisMinted(uint256)": {
        "params": {
          "amount": "The amount of Metis tokens that have been minted."
        }
      },
      "SequencerAgentAdded(uint32,address)": {
        "params": {
          "agent": "address of the agent",
          "index": "index of the agent"
        }
      },
      "SequencerAgentTemplateSet(address,address)": {
        "params": {
          "newValue": "The address of the new sequencer agent template.",
          "oldValue": "The address of the old sequencer agent template."
        }
      },
      "SequencerRelocked(uint32,uint256,uint256)": {
        "params": {
          "amount": "The amount of Metis tokens that have been added to the lock.",
          "index": "The index of the sequencer agent in the sequencer list.",
          "reward": "The amount of additional rewards that have been locked."
        }
      },
      "WithdrawRewardsSet(bool,bool)": {
        "params": {
          "newValue": "The new withdrawRewards.",
          "oldValue": "The old withdrawRewards."
        }
      }
    },
    "kind": "dev",
    "methods": {
      "activeSequencerCount()": {
        "returns": {
          "_0": "The number of active sequencers."
        }
      },
      "addAgent()": {
        "returns": {
          "_0": "The index of the new sequencer agent."
        }
      },
      "implementation()": {
        "returns": {
          "_0": "The implementation address"
        }
      },
      "lockFor(uint32,address,uint256,bytes)": {
        "params": {
          "agentId": "The index of the sequencer agent.",
          "amount": "The amount of Metis tokens to lock.",
          "sequencerSigner": "The address of the sequencer signer.",
          "signerPubKey": "The public key of the sequencer signer."
        }
      },
      "owner()": {
        "details": "Returns the address of the current owner."
      },
      "relock()": {
        "details": "The `relock` function will transfer Metis tokens from the Dealer contract to the sequencer agent contract, and then call the `relock` function on the sequencer agent contract.",
        "returns": {
          "totalProcessed": "The total amount of Metis tokens and rewards that have been relocked."
        }
      },
      "renounceOwnership()": {
        "details": "Leaves the contract without owner. It will not be possible to call `onlyOwner` functions. Can only be called by the current owner. NOTE: Renouncing ownership will leave the contract without an owner, thereby disabling any functionality that is only available to the owner."
      },
      "setL2Gas(uint32)": {
        "details": "The L2 gas limit is used when minting eMetis tokens on Layer 2.",
        "params": {
          "_l2Gas": "The new L2 gas limit."
        }
      },
      "setSequencerAgentTemplate(address)": {
        "params": {
          "_sequencerAgentTemplate": "The address of the new sequencer agent template."
        }
      },
      "setWithdrawRewards(bool)": {
        "params": {
          "_withdrawRewards": "The new value of the withdrawRewards flag."
        }
      },
      "transferOwnership(address)": {
        "details": "Transfers ownership of the contract to a new account (`newOwner`). Can only be called by the current owner."
      },
      "unlock(uint32)": {
        "params": {
          "agentId": "The index of the sequencer agent."
        }
      },
      "unlockClaim(uint32)": {
        "params": {
          "agentId": "The index of the sequencer agent."
        }
      }
    },
    "title": "Dealer",
    "version": 1
  },
  "userdoc": {
    "events": {
      "L2GasSet(uint32,uint32)": {
        "notice": "Emits when the L2 gas limit is set."
      },
      "L2MetisMinted(uint256)": {
        "notice": "Emits when Metis tokens are minted on Layer 2."
      },
      "SequencerAgentAdded(uint32,address)": {
        "notice": "Emits when a new sequencer agent is added"
      },
      "SequencerAgentTemplateSet(address,address)": {
        "notice": "Emits when the sequencer agent template is set."
      },
      "SequencerRelocked(uint32,uint256,uint256)": {
        "notice": "Emits when additional Metis tokens and rewards are locked for a sequencer."
      },
      "WithdrawRewardsSet(bool,bool)": {
        "notice": "Emits when withdrawRewards is set."
      }
    },
    "kind": "user",
    "methods": {
      "activeSequencerCount()": {
        "notice": "Returns the number of active sequencers."
      },
      "activeSequencerIds(uint256)": {
        "notice": "The list of active sequencer agent IDs."
      },
      "addAgent()": {
        "notice": "Adds a new sequencer agent."
      },
      "implementation()": {
        "notice": "Use Dealer as a beacon of BeaconProxy for SequencerAgent"
      },
      "initialize(address,address,address,uint256,uint32,address,address)": {
        "notice": "Initializes the contract."
      },
      "l2ChainId()": {
        "notice": "The ID of the L2 chain."
      },
      "l2Gas()": {
        "notice": "L2 gas limit."
      },
      "l2Minter()": {
        "notice": "The address of the L2 MetisMinter contract."
      },
      "l2RewardDispatcher()": {
        "notice": "The address of the L2 RewardDispatcher contract."
      },
      "lockFor(uint32,address,uint256,bytes)": {
        "notice": "Locks Metis tokens for a new sequencer."
      },
      "lockingInfo()": {
        "notice": "The LockingInfo contract address."
      },
      "lockingPool()": {
        "notice": "The LockingPool contract address."
      },
      "messenger()": {
        "notice": "The L2 messenger contract."
      },
      "metis()": {
        "notice": "The Metis token."
      },
      "relock()": {
        "notice": "Facilitates the process of augmenting the locked Metis tokens and rewards for all currently active sequencers."
      },
      "sequencerAgentCount()": {
        "notice": "The number of sequencer agents."
      },
      "sequencerAgentTemplate()": {
        "notice": "The template contract for sequencer agents."
      },
      "sequencerAgents(uint32)": {
        "notice": "The list of sequencer agents."
      },
      "setActive(uint32,bool)": {
        "notice": "Sets the active status of a sequencer agent."
      },
      "setL2Gas(uint32)": {
        "notice": "Sets the L2 gas limit."
      },
      "setSequencerAgentTemplate(address)": {
        "notice": "Sets the sequencer agent template."
      },
      "setWithdrawRewards(bool)": {
        "notice": "set withdraw rewards"
      },
      "sumRewards()": {
        "notice": "The sum of rewards of all sequencers."
      },
      "totalLocked()": {
        "notice": "Returns the total amount of Metis tokens that have been locked for all sequencers."
      },
      "unlock(uint32)": {
        "notice": "Unlock Metis tokens and terminate the sequencer."
      },
      "unlockClaim(uint32)": {
        "notice": "The `unlockClaim` function allows a sequencer to claim their Metis tokens after the unlocking waiting period has elapsed."
      },
      "withdrawRewards()": {
        "notice": "withdraw rewards"
      }
    },
    "notice": "The Dealer contract is responsible for the allocation of Metis tokens from Layer 2 to the LockingPool for sequencers, through sequencer agents.",
    "version": 1
  },
  "storageLayout": {
    "storage": [
      {
        "astId": 2455,
        "contract": "contracts/Dealer.sol:Dealer",
        "label": "sequencerAgentTemplate",
        "offset": 0,
        "slot": "0",
        "type": "t_address"
      },
      {
        "astId": 2459,
        "contract": "contracts/Dealer.sol:Dealer",
        "label": "metis",
        "offset": 0,
        "slot": "1",
        "type": "t_contract(IERC20)979"
      },
      {
        "astId": 2463,
        "contract": "contracts/Dealer.sol:Dealer",
        "label": "lockingPool",
        "offset": 0,
        "slot": "2",
        "type": "t_contract(ILockingPool)3930"
      },
      {
        "astId": 2467,
        "contract": "contracts/Dealer.sol:Dealer",
        "label": "lockingInfo",
        "offset": 0,
        "slot": "3",
        "type": "t_contract(ILockingInfo)3807"
      },
      {
        "astId": 2471,
        "contract": "contracts/Dealer.sol:Dealer",
        "label": "messenger",
        "offset": 0,
        "slot": "4",
        "type": "t_contract(ICrossDomainMessenger)3597"
      },
      {
        "astId": 2474,
        "contract": "contracts/Dealer.sol:Dealer",
        "label": "l2ChainId",
        "offset": 0,
        "slot": "5",
        "type": "t_uint256"
      },
      {
        "astId": 2477,
        "contract": "contracts/Dealer.sol:Dealer",
        "label": "l2Minter",
        "offset": 0,
        "slot": "6",
        "type": "t_address"
      },
      {
        "astId": 2480,
        "contract": "contracts/Dealer.sol:Dealer",
        "label": "l2RewardDispatcher",
        "offset": 0,
        "slot": "7",
        "type": "t_address"
      },
      {
        "astId": 2485,
        "contract": "contracts/Dealer.sol:Dealer",
        "label": "sequencerAgents",
        "offset": 0,
        "slot": "8",
        "type": "t_mapping(t_uint32,t_address)"
      },
      {
        "astId": 2488,
        "contract": "contracts/Dealer.sol:Dealer",
        "label": "sequencerAgentCount",
        "offset": 0,
        "slot": "9",
        "type": "t_uint32"
      },
      {
        "astId": 2492,
        "contract": "contracts/Dealer.sol:Dealer",
        "label": "activeSequencerIds",
        "offset": 0,
        "slot": "10",
        "type": "t_array(t_uint32)dyn_storage"
      },
      {
        "astId": 2495,
        "contract": "contracts/Dealer.sol:Dealer",
        "label": "sumRewards",
        "offset": 0,
        "slot": "11",
        "type": "t_uint256"
      },
      {
        "astId": 2498,
        "contract": "contracts/Dealer.sol:Dealer",
        "label": "l2Gas",
        "offset": 0,
        "slot": "12",
        "type": "t_uint32"
      },
      {
        "astId": 2501,
        "contract": "contracts/Dealer.sol:Dealer",
        "label": "withdrawRewards",
        "offset": 4,
        "slot": "12",
        "type": "t_bool"
      }
    ],
    "types": {
      "t_address": {
        "encoding": "inplace",
        "label": "address",
        "numberOfBytes": "20"
      },
      "t_array(t_uint32)dyn_storage": {
        "base": "t_uint32",
        "encoding": "dynamic_array",
        "label": "uint32[]",
        "numberOfBytes": "32"
      },
      "t_bool": {
        "encoding": "inplace",
        "label": "bool",
        "numberOfBytes": "1"
      },
      "t_contract(ICrossDomainMessenger)3597": {
        "encoding": "inplace",
        "label": "contract ICrossDomainMessenger",
        "numberOfBytes": "20"
      },
      "t_contract(IERC20)979": {
        "encoding": "inplace",
        "label": "contract IERC20",
        "numberOfBytes": "20"
      },
      "t_contract(ILockingInfo)3807": {
        "encoding": "inplace",
        "label": "contract ILockingInfo",
        "numberOfBytes": "20"
      },
      "t_contract(ILockingPool)3930": {
        "encoding": "inplace",
        "label": "contract ILockingPool",
        "numberOfBytes": "20"
      },
      "t_mapping(t_uint32,t_address)": {
        "encoding": "mapping",
        "key": "t_uint32",
        "label": "mapping(uint32 => address)",
        "numberOfBytes": "32",
        "value": "t_address"
      },
      "t_uint256": {
        "encoding": "inplace",
        "label": "uint256",
        "numberOfBytes": "32"
      },
      "t_uint32": {
        "encoding": "inplace",
        "label": "uint32",
        "numberOfBytes": "4"
      }
    }
  }
}