{
  "address": "0x33B7cdB39fE9bFe4fA71A3C1983bDF59B1138a09",
  "abi": [
    {
      "inputs": [],
      "name": "InvalidInitialization",
      "type": "error"
    },
    {
      "inputs": [],
      "name": "NotInitializing",
      "type": "error"
    },
    {
      "anonymous": false,
      "inputs": [
        {
          "indexed": false,
          "internalType": "uint64",
          "name": "version",
          "type": "uint64"
        }
      ],
      "name": "Initialized",
      "type": "event"
    },
    {
      "inputs": [],
      "name": "active",
      "outputs": [
        {
          "internalType": "bool",
          "name": "",
          "type": "bool"
        }
      ],
      "stateMutability": "view",
      "type": "function"
    },
    {
      "inputs": [],
      "name": "dealer",
      "outputs": [
        {
          "internalType": "address",
          "name": "",
          "type": "address"
        }
      ],
      "stateMutability": "view",
      "type": "function"
    },
    {
      "inputs": [
        {
          "internalType": "address",
          "name": "_dealer",
          "type": "address"
        },
        {
          "internalType": "contract ILockingPool",
          "name": "_lockingPool",
          "type": "address"
        },
        {
          "internalType": "contract ILockingInfo",
          "name": "_lockingInfo",
          "type": "address"
        },
        {
          "internalType": "address",
          "name": "_metis",
          "type": "address"
        }
      ],
      "name": "initialize",
      "outputs": [],
      "stateMutability": "nonpayable",
      "type": "function"
    },
    {
      "inputs": [
        {
          "internalType": "address",
          "name": "_sequencerSigner",
          "type": "address"
        },
        {
          "internalType": "address",
          "name": "_rewardRecipient",
          "type": "address"
        },
        {
          "internalType": "uint256",
          "name": "_amount",
          "type": "uint256"
        },
        {
          "internalType": "bytes",
          "name": "_signerPubKey",
          "type": "bytes"
        }
      ],
      "name": "lock",
      "outputs": [],
      "stateMutability": "nonpayable",
      "type": "function"
    },
    {
      "inputs": [],
      "name": "lockingInfo",
      "outputs": [
        {
          "internalType": "contract ILockingInfo",
          "name": "",
          "type": "address"
        }
      ],
      "stateMutability": "view",
      "type": "function"
    },
    {
      "inputs": [],
      "name": "lockingPool",
      "outputs": [
        {
          "internalType": "contract ILockingPool",
          "name": "",
          "type": "address"
        }
      ],
      "stateMutability": "view",
      "type": "function"
    },
    {
      "inputs": [],
      "name": "metis",
      "outputs": [
        {
          "internalType": "contract IERC20",
          "name": "",
          "type": "address"
        }
      ],
      "stateMutability": "view",
      "type": "function"
    },
    {
      "inputs": [
        {
          "internalType": "uint256",
          "name": "amount",
          "type": "uint256"
        }
      ],
      "name": "relock",
      "outputs": [],
      "stateMutability": "nonpayable",
      "type": "function"
    },
    {
      "inputs": [],
      "name": "sequencerData",
      "outputs": [
        {
          "components": [
            {
              "internalType": "uint256",
              "name": "amount",
              "type": "uint256"
            },
            {
              "internalType": "uint256",
              "name": "reward",
              "type": "uint256"
            },
            {
              "internalType": "uint256",
              "name": "activationBatch",
              "type": "uint256"
            },
            {
              "internalType": "uint256",
              "name": "updatedBatch",
              "type": "uint256"
            },
            {
              "internalType": "uint256",
              "name": "deactivationBatch",
              "type": "uint256"
            },
            {
              "internalType": "uint256",
              "name": "deactivationTime",
              "type": "uint256"
            },
            {
              "internalType": "uint256",
              "name": "unlockClaimTime",
              "type": "uint256"
            },
            {
              "internalType": "uint256",
              "name": "nonce",
              "type": "uint256"
            },
            {
              "internalType": "address",
              "name": "owner",
              "type": "address"
            },
            {
              "internalType": "address",
              "name": "signer",
              "type": "address"
            }
          ],
          "internalType": "struct ILockingPool.SequencerData",
          "name": "",
          "type": "tuple"
        }
      ],
      "stateMutability": "view",
      "type": "function"
    },
    {
      "inputs": [],
      "name": "sequencerId",
      "outputs": [
        {
          "internalType": "uint256",
          "name": "",
          "type": "uint256"
        }
      ],
      "stateMutability": "view",
      "type": "function"
    },
    {
      "inputs": [],
      "name": "sequencerSigner",
      "outputs": [
        {
          "internalType": "address",
          "name": "",
          "type": "address"
        }
      ],
      "stateMutability": "view",
      "type": "function"
    },
    {
      "inputs": [
        {
          "internalType": "uint32",
          "name": "l2Gas",
          "type": "uint32"
        }
      ],
      "name": "unlock",
      "outputs": [],
      "stateMutability": "payable",
      "type": "function"
    },
    {
      "inputs": [
        {
          "internalType": "uint32",
          "name": "l2Gas",
          "type": "uint32"
        }
      ],
      "name": "unlockClaim",
      "outputs": [],
      "stateMutability": "payable",
      "type": "function"
    },
    {
      "inputs": [
        {
          "internalType": "uint32",
          "name": "l2Gas",
          "type": "uint32"
        }
      ],
      "name": "withdrawRewards",
      "outputs": [],
      "stateMutability": "nonpayable",
      "type": "function"
    }
  ],
  "transactionHash": "0x00604562ebccc68127a984dd9231076fb6d7c6d02e552c57b0b49d443f9d1699",
  "args": [],
  "numDeployments": 1,
  "solcInputHash": "1d2e5e355cd89d01ed8db67fc6ce5869",
  "bytecode": "0x608060405234801561001057600080fd5b50611e7a806100206000396000f3fe6080604052600436106100dd5760003560e01c80639de2ee211161007f578063ce6df54a11610059578063ce6df54a1461026e578063e597455414610297578063f7cee36a146102c2578063f8c8765e146102ed576100dd565b80639de2ee21146101ef578063a98d38f01461021a578063c3b550c814610243576100dd565b806356387b91116100bb57806356387b911461015457806367d93c811461017d57806376d9f95c1461019957806385d1e2b8146101c4576100dd565b806302fb0c5e146100e257806304a78fca1461010d5780631221e6a514610138575b600080fd5b3480156100ee57600080fd5b506100f7610316565b6040516101049190611266565b60405180910390f35b34801561011957600080fd5b50610122610329565b60405161012f919061129a565b60405180910390f35b610152600480360381019061014d9190611305565b61032f565b005b34801561016057600080fd5b5061017b60048036038101906101769190611305565b6105ae565b005b61019760048036038101906101929190611305565b6106d0565b005b3480156101a557600080fd5b506101ae61080e565b6040516101bb919061144e565b60405180910390f35b3480156101d057600080fd5b506101d96108ba565b6040516101e691906114c9565b60405180910390f35b3480156101fb57600080fd5b506102046108e0565b60405161021191906114f3565b60405180910390f35b34801561022657600080fd5b50610241600480360381019061023c919061153a565b610904565b005b34801561024f57600080fd5b50610258610a29565b60405161026591906114f3565b60405180910390f35b34801561027a57600080fd5b50610295600480360381019061029091906116d9565b610a4f565b005b3480156102a357600080fd5b506102ac610ecc565b6040516102b9919061177d565b60405180910390f35b3480156102ce57600080fd5b506102d7610ef2565b6040516102e491906117b9565b60405180910390f35b3480156102f957600080fd5b50610314600480360381019061030f9190611850565b610f18565b005b600560149054906101000a900460ff1681565b60045481565b60008054906101000a900473ffffffffffffffffffffffffffffffffffffffff1673ffffffffffffffffffffffffffffffffffffffff163373ffffffffffffffffffffffffffffffffffffffff16146103bd576040517f08c379a00000000000000000000000000000000000000000000000000000000081526004016103b490611914565b60405180910390fd5b600160009054906101000a900473ffffffffffffffffffffffffffffffffffffffff1673ffffffffffffffffffffffffffffffffffffffff16638ddc74de34600454846040518463ffffffff1660e01b815260040161041d929190611943565b6000604051808303818588803b15801561043657600080fd5b505af115801561044a573d6000803e3d6000fd5b5050505050600360009054906101000a900473ffffffffffffffffffffffffffffffffffffffff1673ffffffffffffffffffffffffffffffffffffffff1663a9059cbb60008054906101000a900473ffffffffffffffffffffffffffffffffffffffff16600360009054906101000a900473ffffffffffffffffffffffffffffffffffffffff1673ffffffffffffffffffffffffffffffffffffffff166370a08231306040518263ffffffff1660e01b815260040161050991906114f3565b602060405180830381865afa158015610526573d6000803e3d6000fd5b505050506040513d601f19601f8201168201806040525081019061054a9190611981565b6040518363ffffffff1660e01b81526004016105679291906119ae565b6020604051808303816000875af1158015610586573d6000803e3d6000fd5b505050506040513d601f19601f820116820180604052508101906105aa9190611a03565b5050565b60008054906101000a900473ffffffffffffffffffffffffffffffffffffffff1673ffffffffffffffffffffffffffffffffffffffff163373ffffffffffffffffffffffffffffffffffffffff161461063c576040517f08c379a000000000000000000000000000000000000000000000000000000000815260040161063390611914565b60405180910390fd5b600160009054906101000a900473ffffffffffffffffffffffffffffffffffffffff1673ffffffffffffffffffffffffffffffffffffffff166317396687600454836040518363ffffffff1660e01b815260040161069b929190611943565b600060405180830381600087803b1580156106b557600080fd5b505af11580156106c9573d6000803e3d6000fd5b5050505050565b60008054906101000a900473ffffffffffffffffffffffffffffffffffffffff1673ffffffffffffffffffffffffffffffffffffffff163373ffffffffffffffffffffffffffffffffffffffff161461075e576040517f08c379a000000000000000000000000000000000000000000000000000000000815260040161075590611914565b60405180910390fd5b600160009054906101000a900473ffffffffffffffffffffffffffffffffffffffff1673ffffffffffffffffffffffffffffffffffffffff1663262c0e6634600454846040518463ffffffff1660e01b81526004016107be929190611943565b6000604051808303818588803b1580156107d757600080fd5b505af11580156107eb573d6000803e3d6000fd5b50505050506000600560146101000a81548160ff02191690831515021790555050565b6108166111cc565b600160009054906101000a900473ffffffffffffffffffffffffffffffffffffffff1673ffffffffffffffffffffffffffffffffffffffff16636ba7ccff6004546040518263ffffffff1660e01b8152600401610873919061129a565b61014060405180830381865afa158015610891573d6000803e3d6000fd5b505050506040513d601f19601f820116820180604052508101906108b59190611b40565b905090565b600160009054906101000a900473ffffffffffffffffffffffffffffffffffffffff1681565b60008054906101000a900473ffffffffffffffffffffffffffffffffffffffff1681565b60008054906101000a900473ffffffffffffffffffffffffffffffffffffffff1673ffffffffffffffffffffffffffffffffffffffff163373ffffffffffffffffffffffffffffffffffffffff1614610992576040517f08c379a000000000000000000000000000000000000000000000000000000000815260040161098990611914565b60405180910390fd5b600160009054906101000a900473ffffffffffffffffffffffffffffffffffffffff1673ffffffffffffffffffffffffffffffffffffffff1663015bb1806004548360016040518463ffffffff1660e01b81526004016109f493929190611b6e565b600060405180830381600087803b158015610a0e57600080fd5b505af1158015610a22573d6000803e3d6000fd5b5050505050565b600560009054906101000a900473ffffffffffffffffffffffffffffffffffffffff1681565b60008054906101000a900473ffffffffffffffffffffffffffffffffffffffff1673ffffffffffffffffffffffffffffffffffffffff163373ffffffffffffffffffffffffffffffffffffffff1614610add576040517f08c379a0000000000000000000000000000000000000000000000000000000008152600401610ad490611914565b60405180910390fd5b600060045414610b22576040517f08c379a0000000000000000000000000000000000000000000000000000000008152600401610b1990611c17565b60405180910390fd5b600073ffffffffffffffffffffffffffffffffffffffff168473ffffffffffffffffffffffffffffffffffffffff1614158015610b8c5750600073ffffffffffffffffffffffffffffffffffffffff168373ffffffffffffffffffffffffffffffffffffffff1614155b610bcb576040517f08c379a0000000000000000000000000000000000000000000000000000000008152600401610bc290611c83565b60405180910390fd5b60008211610c0e576040517f08c379a0000000000000000000000000000000000000000000000000000000008152600401610c0590611cef565b60405180910390fd5b83600560006101000a81548173ffffffffffffffffffffffffffffffffffffffff021916908373ffffffffffffffffffffffffffffffffffffffff160217905550600360009054906101000a900473ffffffffffffffffffffffffffffffffffffffff1673ffffffffffffffffffffffffffffffffffffffff1663095ea7b3600260009054906101000a900473ffffffffffffffffffffffffffffffffffffffff167fffffffffffffffffffffffffffffffffffffffffffffffffffffffffffffffff6040518363ffffffff1660e01b8152600401610cee9291906119ae565b6020604051808303816000875af1158015610d0d573d6000803e3d6000fd5b505050506040513d601f19601f82011682018060405250810190610d319190611a03565b50600160009054906101000a900473ffffffffffffffffffffffffffffffffffffffff1673ffffffffffffffffffffffffffffffffffffffff16639ad42030600560009054906101000a900473ffffffffffffffffffffffffffffffffffffffff168585856040518563ffffffff1660e01b8152600401610db59493929190611d8e565b600060405180830381600087803b158015610dcf57600080fd5b505af1158015610de3573d6000803e3d6000fd5b50505050600160009054906101000a900473ffffffffffffffffffffffffffffffffffffffff1673ffffffffffffffffffffffffffffffffffffffff1663beb26755600560009054906101000a900473ffffffffffffffffffffffffffffffffffffffff166040518263ffffffff1660e01b8152600401610e6491906114f3565b602060405180830381865afa158015610e81573d6000803e3d6000fd5b505050506040513d601f19601f82011682018060405250810190610ea59190611981565b6004819055506001600560146101000a81548160ff02191690831515021790555050505050565b600360009054906101000a900473ffffffffffffffffffffffffffffffffffffffff1681565b600260009054906101000a900473ffffffffffffffffffffffffffffffffffffffff1681565b6000610f226111a4565b905060008160000160089054906101000a900460ff1615905060008260000160009054906101000a900467ffffffffffffffff1690506000808267ffffffffffffffff16148015610f705750825b9050600060018367ffffffffffffffff16148015610fa5575060003073ffffffffffffffffffffffffffffffffffffffff163b145b905081158015610fb3575080155b15610fea576040517ff92ee8a900000000000000000000000000000000000000000000000000000000815260040160405180910390fd5b60018560000160006101000a81548167ffffffffffffffff021916908367ffffffffffffffff160217905550831561103a5760018560000160086101000a81548160ff0219169083151502179055505b886000806101000a81548173ffffffffffffffffffffffffffffffffffffffff021916908373ffffffffffffffffffffffffffffffffffffffff16021790555087600160006101000a81548173ffffffffffffffffffffffffffffffffffffffff021916908373ffffffffffffffffffffffffffffffffffffffff16021790555086600260006101000a81548173ffffffffffffffffffffffffffffffffffffffff021916908373ffffffffffffffffffffffffffffffffffffffff16021790555085600360006101000a81548173ffffffffffffffffffffffffffffffffffffffff021916908373ffffffffffffffffffffffffffffffffffffffff16021790555083156111995760008560000160086101000a81548160ff0219169083151502179055507fc7f505b2f371ae2175ee4913f4499e1f2633a7b5936321eed1cdaeb6115181d260016040516111909190611e29565b60405180910390a15b505050505050505050565b60007ff0c57e16840df040f15088dc2f81fe391c3923bec73e23a9662efc9c229c6a00905090565b6040518061014001604052806000815260200160008152602001600081526020016000815260200160008152602001600081526020016000815260200160008152602001600073ffffffffffffffffffffffffffffffffffffffff168152602001600073ffffffffffffffffffffffffffffffffffffffff1681525090565b60008115159050919050565b6112608161124b565b82525050565b600060208201905061127b6000830184611257565b92915050565b6000819050919050565b61129481611281565b82525050565b60006020820190506112af600083018461128b565b92915050565b6000604051905090565b600080fd5b600080fd5b600063ffffffff82169050919050565b6112e2816112c9565b81146112ed57600080fd5b50565b6000813590506112ff816112d9565b92915050565b60006020828403121561131b5761131a6112bf565b5b6000611329848285016112f0565b91505092915050565b61133b81611281565b82525050565b600073ffffffffffffffffffffffffffffffffffffffff82169050919050565b600061136c82611341565b9050919050565b61137c81611361565b82525050565b610140820160008201516113996000850182611332565b5060208201516113ac6020850182611332565b5060408201516113bf6040850182611332565b5060608201516113d26060850182611332565b5060808201516113e56080850182611332565b5060a08201516113f860a0850182611332565b5060c082015161140b60c0850182611332565b5060e082015161141e60e0850182611332565b50610100820151611433610100850182611373565b50610120820151611448610120850182611373565b50505050565b6000610140820190506114646000830184611382565b92915050565b6000819050919050565b600061148f61148a61148584611341565b61146a565b611341565b9050919050565b60006114a182611474565b9050919050565b60006114b382611496565b9050919050565b6114c3816114a8565b82525050565b60006020820190506114de60008301846114ba565b92915050565b6114ed81611361565b82525050565b600060208201905061150860008301846114e4565b92915050565b61151781611281565b811461152257600080fd5b50565b6000813590506115348161150e565b92915050565b6000602082840312156115505761154f6112bf565b5b600061155e84828501611525565b91505092915050565b61157081611361565b811461157b57600080fd5b50565b60008135905061158d81611567565b92915050565b600080fd5b600080fd5b6000601f19601f8301169050919050565b7f4e487b7100000000000000000000000000000000000000000000000000000000600052604160045260246000fd5b6115e68261159d565b810181811067ffffffffffffffff82111715611605576116046115ae565b5b80604052505050565b60006116186112b5565b905061162482826115dd565b919050565b600067ffffffffffffffff821115611644576116436115ae565b5b61164d8261159d565b9050602081019050919050565b82818337600083830152505050565b600061167c61167784611629565b61160e565b90508281526020810184848401111561169857611697611598565b5b6116a384828561165a565b509392505050565b600082601f8301126116c0576116bf611593565b5b81356116d0848260208601611669565b91505092915050565b600080600080608085870312156116f3576116f26112bf565b5b60006117018782880161157e565b94505060206117128782880161157e565b935050604061172387828801611525565b925050606085013567ffffffffffffffff811115611744576117436112c4565b5b611750878288016116ab565b91505092959194509250565b600061176782611496565b9050919050565b6117778161175c565b82525050565b6000602082019050611792600083018461176e565b92915050565b60006117a382611496565b9050919050565b6117b381611798565b82525050565b60006020820190506117ce60008301846117aa565b92915050565b60006117df82611361565b9050919050565b6117ef816117d4565b81146117fa57600080fd5b50565b60008135905061180c816117e6565b92915050565b600061181d82611361565b9050919050565b61182d81611812565b811461183857600080fd5b50565b60008135905061184a81611824565b92915050565b6000806000806080858703121561186a576118696112bf565b5b60006118788782880161157e565b9450506020611889878288016117fd565b935050604061189a8782880161183b565b92505060606118ab8782880161157e565b91505092959194509250565b600082825260208201905092915050565b7f53657175656e6365724167656e743a206f6e6c79206465616c65720000000000600082015250565b60006118fe601b836118b7565b9150611909826118c8565b602082019050919050565b6000602082019050818103600083015261192d816118f1565b9050919050565b61193d816112c9565b82525050565b6000604082019050611958600083018561128b565b6119656020830184611934565b9392505050565b60008151905061197b8161150e565b92915050565b600060208284031215611997576119966112bf565b5b60006119a58482850161196c565b91505092915050565b60006040820190506119c360008301856114e4565b6119d0602083018461128b565b9392505050565b6119e08161124b565b81146119eb57600080fd5b50565b6000815190506119fd816119d7565b92915050565b600060208284031215611a1957611a186112bf565b5b6000611a27848285016119ee565b91505092915050565b600080fd5b600081519050611a4481611567565b92915050565b60006101408284031215611a6157611a60611a30565b5b611a6c61014061160e565b90506000611a7c8482850161196c565b6000830152506020611a908482850161196c565b6020830152506040611aa48482850161196c565b6040830152506060611ab88482850161196c565b6060830152506080611acc8482850161196c565b60808301525060a0611ae08482850161196c565b60a08301525060c0611af48482850161196c565b60c08301525060e0611b088482850161196c565b60e083015250610100611b1d84828501611a35565b61010083015250610120611b3384828501611a35565b6101208301525092915050565b60006101408284031215611b5757611b566112bf565b5b6000611b6584828501611a4a565b91505092915050565b6000606082019050611b83600083018661128b565b611b90602083018561128b565b611b9d6040830184611257565b949350505050565b7f53657175656e6365724167656e743a2073657175656e63657220616c7265616460008201527f79206c6f636b6564000000000000000000000000000000000000000000000000602082015250565b6000611c016028836118b7565b9150611c0c82611ba5565b604082019050919050565b60006020820190508181036000830152611c3081611bf4565b9050919050565b7f53657175656e6365724167656e743a207a65726f206164647265737300000000600082015250565b6000611c6d601c836118b7565b9150611c7882611c37565b602082019050919050565b60006020820190508181036000830152611c9c81611c60565b9050919050565b7f53657175656e6365724167656e743a207a65726f20616d6f756e740000000000600082015250565b6000611cd9601b836118b7565b9150611ce482611ca3565b602082019050919050565b60006020820190508181036000830152611d0881611ccc565b9050919050565b600081519050919050565b600082825260208201905092915050565b60005b83811015611d49578082015181840152602081019050611d2e565b60008484015250505050565b6000611d6082611d0f565b611d6a8185611d1a565b9350611d7a818560208601611d2b565b611d838161159d565b840191505092915050565b6000608082019050611da360008301876114e4565b611db060208301866114e4565b611dbd604083018561128b565b8181036060830152611dcf8184611d55565b905095945050505050565b6000819050919050565b600067ffffffffffffffff82169050919050565b6000611e13611e0e611e0984611dda565b61146a565b611de4565b9050919050565b611e2381611df8565b82525050565b6000602082019050611e3e6000830184611e1a565b9291505056fea26469706673582212206c7948bda4dde7a4757ef81e5c5d0260cdd2806a34e5aac158153b734eabf65464736f6c63430008180033",
  "devdoc": {
    "errors": {
      "InvalidInitialization()": [
        {
          "details": "The contract is already initialized."
        }
      ],
      "NotInitializing()": [
        {
          "details": "The contract is not initializing."
        }
      ]
    },
    "events": {
      "Initialized(uint64)": {
        "details": "Triggered when the contract has been initialized or reinitialized."
      }
    },
    "kind": "dev",
    "methods": {},
    "version": 1
  },
  "userdoc": {
    "kind": "user",
    "methods": {},
    "version": 1
  },
  "storageLayout": {
    "storage": [
      {
        "astId": 2406,
        "contract": "contracts/SequencerAgent.sol:SequencerAgent",
        "label": "dealer",
        "offset": 0,
        "slot": "0",
        "type": "t_address"
      },
      {
        "astId": 2409,
        "contract": "contracts/SequencerAgent.sol:SequencerAgent",
        "label": "lockingPool",
        "offset": 0,
        "slot": "1",
        "type": "t_contract(ILockingPool)3061"
      },
      {
        "astId": 2412,
        "contract": "contracts/SequencerAgent.sol:SequencerAgent",
        "label": "lockingInfo",
        "offset": 0,
        "slot": "2",
        "type": "t_contract(ILockingInfo)2938"
      },
      {
        "astId": 2415,
        "contract": "contracts/SequencerAgent.sol:SequencerAgent",
        "label": "metis",
        "offset": 0,
        "slot": "3",
        "type": "t_contract(IERC20)979"
      },
      {
        "astId": 2417,
        "contract": "contracts/SequencerAgent.sol:SequencerAgent",
        "label": "sequencerId",
        "offset": 0,
        "slot": "4",
        "type": "t_uint256"
      },
      {
        "astId": 2419,
        "contract": "contracts/SequencerAgent.sol:SequencerAgent",
        "label": "sequencerSigner",
        "offset": 0,
        "slot": "5",
        "type": "t_address"
      },
      {
        "astId": 2421,
        "contract": "contracts/SequencerAgent.sol:SequencerAgent",
        "label": "active",
        "offset": 20,
        "slot": "5",
        "type": "t_bool"
      }
    ],
    "types": {
      "t_address": {
        "encoding": "inplace",
        "label": "address",
        "numberOfBytes": "20"
      },
      "t_bool": {
        "encoding": "inplace",
        "label": "bool",
        "numberOfBytes": "1"
      },
      "t_contract(IERC20)979": {
        "encoding": "inplace",
        "label": "contract IERC20",
        "numberOfBytes": "20"
      },
      "t_contract(ILockingInfo)2938": {
        "encoding": "inplace",
        "label": "contract ILockingInfo",
        "numberOfBytes": "20"
      },
      "t_contract(ILockingPool)3061": {
        "encoding": "inplace",
        "label": "contract ILockingPool",
        "numberOfBytes": "20"
      },
      "t_uint256": {
        "encoding": "inplace",
        "label": "uint256",
        "numberOfBytes": "32"
      }
    }
  }
}